{
  "_format": "hh-sol-artifact-1",
  "contractName": "NFTMarketplace",
  "sourceName": "contracts/NFTMarketplace.sol",
  "abi": [
    {
      "inputs": [],
      "stateMutability": "nonpayable",
      "type": "constructor"
    },
    {
      "inputs": [
        {
          "internalType": "address",
          "name": "sender",
          "type": "address"
        },
        {
          "internalType": "uint256",
          "name": "tokenId",
          "type": "uint256"
        },
        {
          "internalType": "address",
          "name": "owner",
          "type": "address"
        }
      ],
      "name": "ERC721IncorrectOwner",
      "type": "error"
    },
    {
      "inputs": [
        {
          "internalType": "address",
          "name": "operator",
          "type": "address"
        },
        {
          "internalType": "uint256",
          "name": "tokenId",
          "type": "uint256"
        }
      ],
      "name": "ERC721InsufficientApproval",
      "type": "error"
    },
    {
      "inputs": [
        {
          "internalType": "address",
          "name": "approver",
          "type": "address"
        }
      ],
      "name": "ERC721InvalidApprover",
      "type": "error"
    },
    {
      "inputs": [
        {
          "internalType": "address",
          "name": "operator",
          "type": "address"
        }
      ],
      "name": "ERC721InvalidOperator",
      "type": "error"
    },
    {
      "inputs": [
        {
          "internalType": "address",
          "name": "owner",
          "type": "address"
        }
      ],
      "name": "ERC721InvalidOwner",
      "type": "error"
    },
    {
      "inputs": [
        {
          "internalType": "address",
          "name": "receiver",
          "type": "address"
        }
      ],
      "name": "ERC721InvalidReceiver",
      "type": "error"
    },
    {
      "inputs": [
        {
          "internalType": "address",
          "name": "sender",
          "type": "address"
        }
      ],
      "name": "ERC721InvalidSender",
      "type": "error"
    },
    {
      "inputs": [
        {
          "internalType": "uint256",
          "name": "tokenId",
          "type": "uint256"
        }
      ],
      "name": "ERC721NonexistentToken",
      "type": "error"
    },
    {
      "inputs": [],
      "name": "ReentrancyGuardReentrantCall",
      "type": "error"
    },
    {
      "anonymous": false,
      "inputs": [
        {
          "indexed": true,
          "internalType": "address",
          "name": "owner",
          "type": "address"
        },
        {
          "indexed": true,
          "internalType": "address",
          "name": "approved",
          "type": "address"
        },
        {
          "indexed": true,
          "internalType": "uint256",
          "name": "tokenId",
          "type": "uint256"
        }
      ],
      "name": "Approval",
      "type": "event"
    },
    {
      "anonymous": false,
      "inputs": [
        {
          "indexed": true,
          "internalType": "address",
          "name": "owner",
          "type": "address"
        },
        {
          "indexed": true,
          "internalType": "address",
          "name": "operator",
          "type": "address"
        },
        {
          "indexed": false,
          "internalType": "bool",
          "name": "approved",
          "type": "bool"
        }
      ],
      "name": "ApprovalForAll",
      "type": "event"
    },
    {
      "anonymous": false,
      "inputs": [
        {
          "indexed": false,
          "internalType": "uint256",
          "name": "_fromTokenId",
          "type": "uint256"
        },
        {
          "indexed": false,
          "internalType": "uint256",
          "name": "_toTokenId",
          "type": "uint256"
        }
      ],
      "name": "BatchMetadataUpdate",
      "type": "event"
    },
    {
      "anonymous": false,
      "inputs": [
        {
          "indexed": false,
          "internalType": "uint256",
          "name": "_tokenId",
          "type": "uint256"
        }
      ],
      "name": "MetadataUpdate",
      "type": "event"
    },
    {
      "anonymous": false,
      "inputs": [
        {
          "indexed": true,
          "internalType": "uint256",
          "name": "propertyId",
          "type": "uint256"
        },
        {
          "indexed": true,
          "internalType": "uint256",
          "name": "tokenId",
          "type": "uint256"
        },
        {
          "indexed": false,
          "internalType": "address",
          "name": "seller",
          "type": "address"
        },
        {
          "indexed": false,
          "internalType": "address",
          "name": "owner",
          "type": "address"
        },
        {
          "indexed": false,
          "internalType": "uint256",
          "name": "price",
          "type": "uint256"
        },
        {
          "indexed": false,
          "internalType": "bool",
          "name": "sold",
          "type": "bool"
        },
        {
          "indexed": false,
          "internalType": "string",
          "name": "propertyType",
          "type": "string"
        },
        {
          "indexed": false,
          "internalType": "string",
          "name": "propertyImage",
          "type": "string"
        },
        {
          "indexed": false,
          "internalType": "uint256",
          "name": "squareFootage",
          "type": "uint256"
        },
        {
          "indexed": false,
          "internalType": "string",
          "name": "location",
          "type": "string"
        }
      ],
      "name": "PropertyListed",
      "type": "event"
    },
    {
      "anonymous": false,
      "inputs": [
        {
          "indexed": true,
          "internalType": "address",
          "name": "from",
          "type": "address"
        },
        {
          "indexed": true,
          "internalType": "address",
          "name": "to",
          "type": "address"
        },
        {
          "indexed": true,
          "internalType": "uint256",
          "name": "tokenId",
          "type": "uint256"
        }
      ],
      "name": "Transfer",
      "type": "event"
    },
    {
      "inputs": [
        {
          "internalType": "address",
          "name": "to",
          "type": "address"
        },
        {
          "internalType": "uint256",
          "name": "tokenId",
          "type": "uint256"
        }
      ],
      "name": "approve",
      "outputs": [],
      "stateMutability": "nonpayable",
      "type": "function"
    },
    {
      "inputs": [
        {
          "internalType": "address",
          "name": "owner",
          "type": "address"
        }
      ],
      "name": "balanceOf",
      "outputs": [
        {
          "internalType": "uint256",
          "name": "",
          "type": "uint256"
        }
      ],
      "stateMutability": "view",
      "type": "function"
    },
    {
      "inputs": [
        {
          "internalType": "uint256",
          "name": "propertyId",
          "type": "uint256"
        }
      ],
      "name": "buyProperty",
      "outputs": [],
      "stateMutability": "payable",
      "type": "function"
    },
    {
      "inputs": [
        {
          "internalType": "string",
          "name": "tokenURI",
          "type": "string"
        }
      ],
      "name": "createToken",
      "outputs": [
        {
          "internalType": "uint256",
          "name": "",
          "type": "uint256"
        }
      ],
      "stateMutability": "nonpayable",
      "type": "function"
    },
    {
      "inputs": [],
      "name": "fetchAvailableProperties",
      "outputs": [
        {
          "components": [
            {
              "internalType": "uint256",
              "name": "propertyId",
              "type": "uint256"
            },
            {
              "internalType": "uint256",
              "name": "tokenId",
              "type": "uint256"
            },
            {
              "internalType": "address payable",
              "name": "seller",
              "type": "address"
            },
            {
              "internalType": "address payable",
              "name": "owner",
              "type": "address"
            },
            {
              "internalType": "uint256",
              "name": "price",
              "type": "uint256"
            },
            {
              "internalType": "bool",
              "name": "sold",
              "type": "bool"
            },
            {
              "internalType": "string",
              "name": "propertyType",
              "type": "string"
            },
            {
              "internalType": "string",
              "name": "propertyImage",
              "type": "string"
            },
            {
              "internalType": "uint256",
              "name": "squareFootage",
              "type": "uint256"
            },
            {
              "internalType": "string",
              "name": "location",
              "type": "string"
            }
          ],
          "internalType": "struct NFTMarketplace.Property[]",
          "name": "",
          "type": "tuple[]"
        }
      ],
      "stateMutability": "view",
      "type": "function"
    },
    {
      "inputs": [],
      "name": "fetchMyProperties",
      "outputs": [
        {
          "components": [
            {
              "internalType": "uint256",
              "name": "propertyId",
              "type": "uint256"
            },
            {
              "internalType": "uint256",
              "name": "tokenId",
              "type": "uint256"
            },
            {
              "internalType": "address payable",
              "name": "seller",
              "type": "address"
            },
            {
              "internalType": "address payable",
              "name": "owner",
              "type": "address"
            },
            {
              "internalType": "uint256",
              "name": "price",
              "type": "uint256"
            },
            {
              "internalType": "bool",
              "name": "sold",
              "type": "bool"
            },
            {
              "internalType": "string",
              "name": "propertyType",
              "type": "string"
            },
            {
              "internalType": "string",
              "name": "propertyImage",
              "type": "string"
            },
            {
              "internalType": "uint256",
              "name": "squareFootage",
              "type": "uint256"
            },
            {
              "internalType": "string",
              "name": "location",
              "type": "string"
            }
          ],
          "internalType": "struct NFTMarketplace.Property[]",
          "name": "",
          "type": "tuple[]"
        }
      ],
      "stateMutability": "view",
      "type": "function"
    },
    {
      "inputs": [
        {
          "internalType": "uint256",
          "name": "tokenId",
          "type": "uint256"
        }
      ],
      "name": "getApproved",
      "outputs": [
        {
          "internalType": "address",
          "name": "",
          "type": "address"
        }
      ],
      "stateMutability": "view",
      "type": "function"
    },
    {
      "inputs": [],
      "name": "getListingFee",
      "outputs": [
        {
          "internalType": "uint256",
          "name": "",
          "type": "uint256"
        }
      ],
      "stateMutability": "view",
      "type": "function"
    },
    {
      "inputs": [
        {
          "internalType": "address",
          "name": "owner",
          "type": "address"
        },
        {
          "internalType": "address",
          "name": "operator",
          "type": "address"
        }
      ],
      "name": "isApprovedForAll",
      "outputs": [
        {
          "internalType": "bool",
          "name": "",
          "type": "bool"
        }
      ],
      "stateMutability": "view",
      "type": "function"
    },
    {
      "inputs": [
        {
          "internalType": "uint256",
          "name": "tokenId",
          "type": "uint256"
        },
        {
          "internalType": "uint256",
          "name": "price",
          "type": "uint256"
        },
        {
          "internalType": "string",
          "name": "propertyType",
          "type": "string"
        },
        {
          "internalType": "string",
          "name": "propertyImage",
          "type": "string"
        },
        {
          "internalType": "uint256",
          "name": "squareFootage",
          "type": "uint256"
        },
        {
          "internalType": "string",
          "name": "location",
          "type": "string"
        }
      ],
      "name": "listProperty",
      "outputs": [],
      "stateMutability": "payable",
      "type": "function"
    },
    {
      "inputs": [],
      "name": "name",
      "outputs": [
        {
          "internalType": "string",
          "name": "",
          "type": "string"
        }
      ],
      "stateMutability": "view",
      "type": "function"
    },
    {
      "inputs": [
        {
          "internalType": "uint256",
          "name": "tokenId",
          "type": "uint256"
        }
      ],
      "name": "ownerOf",
      "outputs": [
        {
          "internalType": "address",
          "name": "",
          "type": "address"
        }
      ],
      "stateMutability": "view",
      "type": "function"
    },
    {
      "inputs": [
        {
          "internalType": "address",
          "name": "from",
          "type": "address"
        },
        {
          "internalType": "address",
          "name": "to",
          "type": "address"
        },
        {
          "internalType": "uint256",
          "name": "tokenId",
          "type": "uint256"
        }
      ],
      "name": "safeTransferFrom",
      "outputs": [],
      "stateMutability": "nonpayable",
      "type": "function"
    },
    {
      "inputs": [
        {
          "internalType": "address",
          "name": "from",
          "type": "address"
        },
        {
          "internalType": "address",
          "name": "to",
          "type": "address"
        },
        {
          "internalType": "uint256",
          "name": "tokenId",
          "type": "uint256"
        },
        {
          "internalType": "bytes",
          "name": "data",
          "type": "bytes"
        }
      ],
      "name": "safeTransferFrom",
      "outputs": [],
      "stateMutability": "nonpayable",
      "type": "function"
    },
    {
      "inputs": [
        {
          "internalType": "address",
          "name": "operator",
          "type": "address"
        },
        {
          "internalType": "bool",
          "name": "approved",
          "type": "bool"
        }
      ],
      "name": "setApprovalForAll",
      "outputs": [],
      "stateMutability": "nonpayable",
      "type": "function"
    },
    {
      "inputs": [
        {
          "internalType": "bytes4",
          "name": "interfaceId",
          "type": "bytes4"
        }
      ],
      "name": "supportsInterface",
      "outputs": [
        {
          "internalType": "bool",
          "name": "",
          "type": "bool"
        }
      ],
      "stateMutability": "view",
      "type": "function"
    },
    {
      "inputs": [],
      "name": "symbol",
      "outputs": [
        {
          "internalType": "string",
          "name": "",
          "type": "string"
        }
      ],
      "stateMutability": "view",
      "type": "function"
    },
    {
      "inputs": [
        {
          "internalType": "uint256",
          "name": "tokenId",
          "type": "uint256"
        }
      ],
      "name": "tokenURI",
      "outputs": [
        {
          "internalType": "string",
          "name": "",
          "type": "string"
        }
      ],
      "stateMutability": "view",
      "type": "function"
    },
    {
      "inputs": [
        {
          "internalType": "address",
          "name": "from",
          "type": "address"
        },
        {
          "internalType": "address",
          "name": "to",
          "type": "address"
        },
        {
          "internalType": "uint256",
          "name": "tokenId",
          "type": "uint256"
        }
      ],
      "name": "transferFrom",
      "outputs": [],
      "stateMutability": "nonpayable",
      "type": "function"
    }
  ],
  "bytecode": "0x60806040526658d15e176280006009553480156200001c57600080fd5b506040518060400160405280600f81526020016e1499585b08115cdd185d1948139195608a1b81525060405180604001604052806005815260200164149153919560da1b815250816000908162000074919062000148565b50600162000083828262000148565b5050600160075550600880546001600160a01b0319163317905562000214565b634e487b7160e01b600052604160045260246000fd5b600181811c90821680620000ce57607f821691505b602082108103620000ef57634e487b7160e01b600052602260045260246000fd5b50919050565b601f8211156200014357600081815260208120601f850160051c810160208610156200011e5750805b601f850160051c820191505b818110156200013f578281556001016200012a565b5050505b505050565b81516001600160401b03811115620001645762000164620000a3565b6200017c81620001758454620000b9565b84620000f5565b602080601f831160018114620001b457600084156200019b5750858301515b600019600386901b1c1916600185901b1785556200013f565b600085815260208120601f198616915b82811015620001e557888601518255948401946001909101908401620001c4565b5085821015620002045787850151600019600388901b60f8161c191681555b5050505050600190811b01905550565b6121fa80620002246000396000f3fe6080604052600436106101145760003560e01c80636fa830a6116100a0578063b88d4fde11610064578063b88d4fde146102f5578063b8fe6abe14610315578063c87b56dd1461032a578063e409f7e81461034a578063e985e9c51461035f57600080fd5b80636fa830a61461027a57806370a082311461028d5780638fd91bd7146102ad57806395d89b41146102c0578063a22cb465146102d557600080fd5b806323b872dd116100e757806323b872dd146101ca5780632b20d9d9146101ea57806342842e0e1461020c57806345576f941461022c5780636352211e1461025a57600080fd5b806301ffc9a71461011957806306fdde031461014e578063081812fc14610170578063095ea7b3146101a8575b600080fd5b34801561012557600080fd5b50610139610134366004611a83565b61037f565b60405190151581526020015b60405180910390f35b34801561015a57600080fd5b506101636103aa565b6040516101459190611af0565b34801561017c57600080fd5b5061019061018b366004611b03565b61043c565b6040516001600160a01b039091168152602001610145565b3480156101b457600080fd5b506101c86101c3366004611b38565b610465565b005b3480156101d657600080fd5b506101c86101e5366004611b62565b610474565b3480156101f657600080fd5b506101ff610504565b6040516101459190611b9e565b34801561021857600080fd5b506101c8610227366004611b62565b610813565b34801561023857600080fd5b5061024c610247366004611d4b565b610833565b604051908152602001610145565b34801561026657600080fd5b50610190610275366004611b03565b610860565b6101c8610288366004611b03565b61086b565b34801561029957600080fd5b5061024c6102a8366004611d80565b6109e4565b6101c86102bb366004611d9b565b610a2c565b3480156102cc57600080fd5b50610163610cb9565b3480156102e157600080fd5b506101c86102f0366004611e3f565b610cc8565b34801561030157600080fd5b506101c8610310366004611e7b565b610cd3565b34801561032157600080fd5b5060095461024c565b34801561033657600080fd5b50610163610345366004611b03565b610ceb565b34801561035657600080fd5b506101ff610dfc565b34801561036b57600080fd5b5061013961037a366004611ef7565b611145565b60006001600160e01b03198216632483248360e11b14806103a457506103a482611173565b92915050565b6060600080546103b990611f2a565b80601f01602080910402602001604051908101604052809291908181526020018280546103e590611f2a565b80156104325780601f1061040757610100808354040283529160200191610432565b820191906000526020600020905b81548152906001019060200180831161041557829003601f168201915b5050505050905090565b6000610447826111c3565b506000828152600460205260409020546001600160a01b03166103a4565b6104708282336111fc565b5050565b6001600160a01b0382166104a357604051633250574960e11b8152600060048201526024015b60405180910390fd5b60006104b0838333611209565b9050836001600160a01b0316816001600160a01b0316146104fe576040516364283d7b60e01b81526001600160a01b038086166004830152602482018490528216604482015260640161049a565b50505050565b60606000600c54600b546105189190611f7a565b90506000808267ffffffffffffffff81111561053657610536611c9f565b60405190808252806020026020018201604052801561056f57816020015b61055c611a06565b8152602001906001900390816105545790505b50905060015b600b54811161080b576000818152600d60205260409020600301546001600160a01b03166107f9576000818152600d60209081526040918290208251610140810184528154815260018201549281019290925260028101546001600160a01b03908116938301939093526003810154909216606082015260048201546080820152600582015460ff16151560a082015260068201805491929160c08401919061061d90611f2a565b80601f016020809104026020016040519081016040528092919081815260200182805461064990611f2a565b80156106965780601f1061066b57610100808354040283529160200191610696565b820191906000526020600020905b81548152906001019060200180831161067957829003601f168201915b505050505081526020016007820180546106af90611f2a565b80601f01602080910402602001604051908101604052809291908181526020018280546106db90611f2a565b80156107285780601f106106fd57610100808354040283529160200191610728565b820191906000526020600020905b81548152906001019060200180831161070b57829003601f168201915b505050505081526020016008820154815260200160098201805461074b90611f2a565b80601f016020809104026020016040519081016040528092919081815260200182805461077790611f2a565b80156107c45780601f10610799576101008083540402835291602001916107c4565b820191906000526020600020905b8154815290600101906020018083116107a757829003601f168201915b5050505050815250508284815181106107df576107df611f8d565b602002602001018190525082806107f590611fa3565b9350505b8061080381611fa3565b915050610575565b509392505050565b61082e83838360405180602001604052806000815250610cd3565b505050565b600a80546000918261084483611fa3565b9091555050600a546108563382611302565b6103a48184611367565b60006103a4826111c3565b6108736113b7565b6000818152600d6020526040902060048101546001909101543482146109015760405162461bcd60e51b815260206004820152603760248201527f506c65617365207375626d6974207468652061736b696e67207072696365207460448201527f6f20636f6d706c65746520746865207075726368617365000000000000000000606482015260840161049a565b6000838152600d60205260408082206002015490516001600160a01b03909116913480156108fc02929091818181858888f19350505050158015610949573d6000803e3d6000fd5b506109553033836113e1565b6000838152600d602052604081206003810180546001600160a01b03191633179055600501805460ff19166001179055600c80549161099383611fa3565b90915550506008546009546040516001600160a01b039092169181156108fc0291906000818181858888f193505050501580156109d4573d6000803e3d6000fd5b5050506109e16001600755565b50565b60006001600160a01b038216610a10576040516322718ad960e21b81526000600482015260240161049a565b506001600160a01b031660009081526003602052604090205490565b610a346113b7565b60008511610a845760405162461bcd60e51b815260206004820152601c60248201527f5072696365206d757374206265206174206c6561737420312077656900000000604482015260640161049a565b6009543414610ad55760405162461bcd60e51b815260206004820152601860248201527f4d7573742070617920746865206c697374696e67206665650000000000000000604482015260640161049a565b33610adf87610860565b6001600160a01b031614610b355760405162461bcd60e51b815260206004820181905260248201527f596f752063616e206f6e6c79206c69737420746f6b656e7320796f75206f776e604482015260640161049a565b600b8054906000610b4583611fa3565b9091555050600b54604080516101408101825282815260208082018a815233838501908152600060608501818152608086018d815260a0870183815260c088018e815260e089018e905261010089018d905261012089018c90528a8552600d90975297909220865181559351600185015591516002840180546001600160a01b03199081166001600160a01b03938416179091559251600385018054909416911617909155516004820155925160058401805460ff1916911515919091179055519091906006820190610c189082612002565b5060e08201516007820190610c2d9082612002565b5061010082015160088201556101208201516009820190610c4e9082612002565b50905050610c5d3330896113e1565b86817f3c37c6ed1bdc3e78c945ef524ca6a90c0ce898696542bda923f48414d4a0e65f3360008a60008b8b8b8b604051610c9e9897969594939291906120c2565b60405180910390a350610cb16001600755565b505050505050565b6060600180546103b990611f2a565b610470338383611491565b610cde848484610474565b6104fe3385858585611530565b6060610cf6826111c3565b5060008281526006602052604081208054610d1090611f2a565b80601f0160208091040260200160405190810160405280929190818152602001828054610d3c90611f2a565b8015610d895780601f10610d5e57610100808354040283529160200191610d89565b820191906000526020600020905b815481529060010190602001808311610d6c57829003601f168201915b505050505090506000610da760408051602081019091526000815290565b90508051600003610db9575092915050565b815115610deb578082604051602001610dd392919061213b565b60405160208183030381529060405292505050919050565b610df484611659565b949350505050565b606060008060015b600b548111610e50576000818152600d6020526040902060030154336001600160a01b0390911603610e3e5782610e3a81611fa3565b9350505b80610e4881611fa3565b915050610e04565b5060008267ffffffffffffffff811115610e6c57610e6c611c9f565b604051908082528060200260200182016040528015610ea557816020015b610e92611a06565b815260200190600190039081610e8a5790505b50905060015b600b54811161080b576000818152600d6020526040902060030154336001600160a01b0390911603611133576000818152600d60209081526040918290208251610140810184528154815260018201549281019290925260028101546001600160a01b03908116938301939093526003810154909216606082015260048201546080820152600582015460ff16151560a082015260068201805491929160c084019190610f5790611f2a565b80601f0160208091040260200160405190810160405280929190818152602001828054610f8390611f2a565b8015610fd05780601f10610fa557610100808354040283529160200191610fd0565b820191906000526020600020905b815481529060010190602001808311610fb357829003601f168201915b50505050508152602001600782018054610fe990611f2a565b80601f016020809104026020016040519081016040528092919081815260200182805461101590611f2a565b80156110625780601f1061103757610100808354040283529160200191611062565b820191906000526020600020905b81548152906001019060200180831161104557829003601f168201915b505050505081526020016008820154815260200160098201805461108590611f2a565b80601f01602080910402602001604051908101604052809291908181526020018280546110b190611f2a565b80156110fe5780601f106110d3576101008083540402835291602001916110fe565b820191906000526020600020905b8154815290600101906020018083116110e157829003601f168201915b50505050508152505082848151811061111957611119611f8d565b6020026020010181905250828061112f90611fa3565b9350505b8061113d81611fa3565b915050610eab565b6001600160a01b03918216600090815260056020908152604080832093909416825291909152205460ff1690565b60006001600160e01b031982166380ac58cd60e01b14806111a457506001600160e01b03198216635b5e139f60e01b145b806103a457506301ffc9a760e01b6001600160e01b03198316146103a4565b6000818152600260205260408120546001600160a01b0316806103a457604051637e27328960e01b81526004810184905260240161049a565b61082e83838360016116ce565b6000828152600260205260408120546001600160a01b0390811690831615611236576112368184866117d4565b6001600160a01b03811615611274576112536000856000806116ce565b6001600160a01b038116600090815260036020526040902080546000190190555b6001600160a01b038516156112a3576001600160a01b0385166000908152600360205260409020805460010190555b60008481526002602052604080822080546001600160a01b0319166001600160a01b0389811691821790925591518793918516917fddf252ad1be2c89b69c2b068fc378daa952ba7f163c4a11628f55a4df523b3ef91a4949350505050565b6001600160a01b03821661132c57604051633250574960e11b81526000600482015260240161049a565b600061133a83836000611209565b90506001600160a01b0381161561082e576040516339e3563760e11b81526000600482015260240161049a565b600082815260066020526040902061137f8282612002565b506040518281527ff8e1a15aba9398e019f0b49df1a4fde98ee17ae345cb5f6b5e2c27f5033e8ce79060200160405180910390a15050565b6002600754036113da57604051633ee5aeb560e01b815260040160405180910390fd5b6002600755565b6001600160a01b03821661140b57604051633250574960e11b81526000600482015260240161049a565b600061141983836000611209565b90506001600160a01b03811661144557604051637e27328960e01b81526004810183905260240161049a565b836001600160a01b0316816001600160a01b0316146104fe576040516364283d7b60e01b81526001600160a01b038086166004830152602482018490528216604482015260640161049a565b6001600160a01b0382166114c357604051630b61174360e31b81526001600160a01b038316600482015260240161049a565b6001600160a01b03838116600081815260056020908152604080832094871680845294825291829020805460ff191686151590811790915591519182527f17307eab39ab6107e8899845ad3d59bd9653f200f220920489ca2b5937696c31910160405180910390a3505050565b6001600160a01b0383163b1561165257604051630a85bd0160e11b81526001600160a01b0384169063150b7a029061157290889088908790879060040161216a565b6020604051808303816000875af19250505080156115ad575060408051601f3d908101601f191682019092526115aa918101906121a7565b60015b611616573d8080156115db576040519150601f19603f3d011682016040523d82523d6000602084013e6115e0565b606091505b50805160000361160e57604051633250574960e11b81526001600160a01b038516600482015260240161049a565b805181602001fd5b6001600160e01b03198116630a85bd0160e11b14610cb157604051633250574960e11b81526001600160a01b038516600482015260240161049a565b5050505050565b6060611664826111c3565b50600061167c60408051602081019091526000815290565b9050600081511161169c57604051806020016040528060008152506116c7565b806116a684611838565b6040516020016116b792919061213b565b6040516020818303038152906040525b9392505050565b80806116e257506001600160a01b03821615155b156117a45760006116f2846111c3565b90506001600160a01b0383161580159061171e5750826001600160a01b0316816001600160a01b031614155b8015611731575061172f8184611145565b155b1561175a5760405163a9fbf51f60e01b81526001600160a01b038416600482015260240161049a565b81156117a25783856001600160a01b0316826001600160a01b03167f8c5be1e5ebec7d5bd14f71427d1e84f3dd0314c0f7b2291e5b200ac8c7c3b92560405160405180910390a45b505b5050600090815260046020526040902080546001600160a01b0319166001600160a01b0392909216919091179055565b6117df8383836118cb565b61082e576001600160a01b03831661180d57604051637e27328960e01b81526004810182905260240161049a565b60405163177e802f60e01b81526001600160a01b03831660048201526024810182905260440161049a565b606060006118458361192e565b600101905060008167ffffffffffffffff81111561186557611865611c9f565b6040519080825280601f01601f19166020018201604052801561188f576020820181803683370190505b5090508181016020015b600019016f181899199a1a9b1b9c1cb0b131b232b360811b600a86061a8153600a850494508461189957509392505050565b60006001600160a01b03831615801590610df45750826001600160a01b0316846001600160a01b0316148061190557506119058484611145565b80610df45750506000908152600460205260409020546001600160a01b03908116911614919050565b60008072184f03e93ff9f4daa797ed6e38ed64bf6a1f0160401b831061196d5772184f03e93ff9f4daa797ed6e38ed64bf6a1f0160401b830492506040015b6d04ee2d6d415b85acef81000000008310611999576d04ee2d6d415b85acef8100000000830492506020015b662386f26fc1000083106119b757662386f26fc10000830492506010015b6305f5e10083106119cf576305f5e100830492506008015b61271083106119e357612710830492506004015b606483106119f5576064830492506002015b600a83106103a45760010192915050565b604051806101400160405280600081526020016000815260200160006001600160a01b0316815260200160006001600160a01b0316815260200160008152602001600015158152602001606081526020016060815260200160008152602001606081525090565b6001600160e01b0319811681146109e157600080fd5b600060208284031215611a9557600080fd5b81356116c781611a6d565b60005b83811015611abb578181015183820152602001611aa3565b50506000910152565b60008151808452611adc816020860160208601611aa0565b601f01601f19169290920160200192915050565b6020815260006116c76020830184611ac4565b600060208284031215611b1557600080fd5b5035919050565b80356001600160a01b0381168114611b3357600080fd5b919050565b60008060408385031215611b4b57600080fd5b611b5483611b1c565b946020939093013593505050565b600080600060608486031215611b7757600080fd5b611b8084611b1c565b9250611b8e60208501611b1c565b9150604084013590509250925092565b60006020808301818452808551808352604092508286019150828160051b87010184880160005b83811015611c9157603f198984030185528151805184528781015188850152868101516001600160a01b0390811688860152606080830151909116908501526080808201519085015260a08082015115159085015260c0808201516101408287018190529190611c3783880182611ac4565b9250505060e08083015186830382880152611c528382611ac4565b925050506101008083015181870152506101208083015192508582038187015250611c7d8183611ac4565b968901969450505090860190600101611bc5565b509098975050505050505050565b634e487b7160e01b600052604160045260246000fd5b600067ffffffffffffffff80841115611cd057611cd0611c9f565b604051601f8501601f19908116603f01168101908282118183101715611cf857611cf8611c9f565b81604052809350858152868686011115611d1157600080fd5b858560208301376000602087830101525050509392505050565b600082601f830112611d3c57600080fd5b6116c783833560208501611cb5565b600060208284031215611d5d57600080fd5b813567ffffffffffffffff811115611d7457600080fd5b610df484828501611d2b565b600060208284031215611d9257600080fd5b6116c782611b1c565b60008060008060008060c08789031215611db457600080fd5b8635955060208701359450604087013567ffffffffffffffff80821115611dda57600080fd5b611de68a838b01611d2b565b95506060890135915080821115611dfc57600080fd5b611e088a838b01611d2b565b94506080890135935060a0890135915080821115611e2557600080fd5b50611e3289828a01611d2b565b9150509295509295509295565b60008060408385031215611e5257600080fd5b611e5b83611b1c565b915060208301358015158114611e7057600080fd5b809150509250929050565b60008060008060808587031215611e9157600080fd5b611e9a85611b1c565b9350611ea860208601611b1c565b925060408501359150606085013567ffffffffffffffff811115611ecb57600080fd5b8501601f81018713611edc57600080fd5b611eeb87823560208401611cb5565b91505092959194509250565b60008060408385031215611f0a57600080fd5b611f1383611b1c565b9150611f2160208401611b1c565b90509250929050565b600181811c90821680611f3e57607f821691505b602082108103611f5e57634e487b7160e01b600052602260045260246000fd5b50919050565b634e487b7160e01b600052601160045260246000fd5b818103818111156103a4576103a4611f64565b634e487b7160e01b600052603260045260246000fd5b600060018201611fb557611fb5611f64565b5060010190565b601f82111561082e57600081815260208120601f850160051c81016020861015611fe35750805b601f850160051c820191505b81811015610cb157828155600101611fef565b815167ffffffffffffffff81111561201c5761201c611c9f565b6120308161202a8454611f2a565b84611fbc565b602080601f831160018114612065576000841561204d5750858301515b600019600386901b1c1916600185901b178555610cb1565b600085815260208120601f198616915b8281101561209457888601518255948401946001909101908401612075565b50858210156120b25787850151600019600388901b60f8161c191681555b5050505050600190811b01905550565b6001600160a01b03898116825288166020820152604081018790528515156060820152610100608082018190526000906120fe83820188611ac4565b905082810360a08401526121128187611ac4565b90508460c084015282810360e084015261212c8185611ac4565b9b9a5050505050505050505050565b6000835161214d818460208801611aa0565b835190830190612161818360208801611aa0565b01949350505050565b6001600160a01b038581168252841660208201526040810183905260806060820181905260009061219d90830184611ac4565b9695505050505050565b6000602082840312156121b957600080fd5b81516116c781611a6d56fea2646970667358221220523436e6288cf27cd8e6f76d3d04593ca9fb700570ad8d2b85c7e8e3d6f42b0464736f6c63430008140033",
  "linkReferences": {},
  "deployedLinkReferences": {}
}