{
  "_format": "hh-sol-artifact-1",
  "contractName": "MaticSwap",
  "sourceName": "contracts/MaticSwap.sol",
  "abi": [
    {
      "inputs": [
        {
          "internalType": "address",
          "name": "_uniswapRouter",
          "type": "address"
        }
      ],
      "stateMutability": "nonpayable",
      "type": "constructor"
    },
    {
      "inputs": [
        {
          "internalType": "address",
          "name": "owner",
          "type": "address"
        }
      ],
      "name": "OwnableInvalidOwner",
      "type": "error"
    },
    {
      "inputs": [
        {
          "internalType": "address",
          "name": "account",
          "type": "address"
        }
      ],
      "name": "OwnableUnauthorizedAccount",
      "type": "error"
    },
    {
      "inputs": [],
      "name": "ReentrancyGuardReentrantCall",
      "type": "error"
    },
    {
      "anonymous": false,
      "inputs": [
        {
          "indexed": true,
          "internalType": "address",
          "name": "token",
          "type": "address"
        },
        {
          "indexed": false,
          "internalType": "uint256",
          "name": "tokenAmount",
          "type": "uint256"
        },
        {
          "indexed": false,
          "internalType": "uint256",
          "name": "maticAmount",
          "type": "uint256"
        }
      ],
      "name": "LiquidityAdded",
      "type": "event"
    },
    {
      "anonymous": false,
      "inputs": [
        {
          "indexed": true,
          "internalType": "address",
          "name": "token",
          "type": "address"
        },
        {
          "indexed": false,
          "internalType": "uint256",
          "name": "tokenAmount",
          "type": "uint256"
        },
        {
          "indexed": false,
          "internalType": "uint256",
          "name": "maticAmount",
          "type": "uint256"
        }
      ],
      "name": "LiquidityRemoved",
      "type": "event"
    },
    {
      "anonymous": false,
      "inputs": [
        {
          "indexed": true,
          "internalType": "address",
          "name": "previousOwner",
          "type": "address"
        },
        {
          "indexed": true,
          "internalType": "address",
          "name": "newOwner",
          "type": "address"
        }
      ],
      "name": "OwnershipTransferred",
      "type": "event"
    },
    {
      "anonymous": false,
      "inputs": [
        {
          "indexed": true,
          "internalType": "address",
          "name": "user",
          "type": "address"
        },
        {
          "indexed": true,
          "internalType": "address",
          "name": "tokenIn",
          "type": "address"
        },
        {
          "indexed": false,
          "internalType": "uint256",
          "name": "amountIn",
          "type": "uint256"
        },
        {
          "indexed": false,
          "internalType": "uint256",
          "name": "amountOutMatic",
          "type": "uint256"
        }
      ],
      "name": "TokenSwapped",
      "type": "event"
    },
    {
      "inputs": [],
      "name": "MINIMUM_MATIC_RESERVE",
      "outputs": [
        {
          "internalType": "uint256",
          "name": "",
          "type": "uint256"
        }
      ],
      "stateMutability": "view",
      "type": "function"
    },
    {
      "inputs": [],
      "name": "WMATIC",
      "outputs": [
        {
          "internalType": "address",
          "name": "",
          "type": "address"
        }
      ],
      "stateMutability": "view",
      "type": "function"
    },
    {
      "inputs": [
        {
          "internalType": "address",
          "name": "token",
          "type": "address"
        },
        {
          "internalType": "uint256",
          "name": "tokenAmount",
          "type": "uint256"
        }
      ],
      "name": "addLiquidity",
      "outputs": [],
      "stateMutability": "payable",
      "type": "function"
    },
    {
      "inputs": [
        {
          "internalType": "address",
          "name": "tokenIn",
          "type": "address"
        },
        {
          "internalType": "uint256",
          "name": "amountIn",
          "type": "uint256"
        }
      ],
      "name": "getEstimatedMaticOutput",
      "outputs": [
        {
          "internalType": "uint256",
          "name": "amountOut",
          "type": "uint256"
        }
      ],
      "stateMutability": "view",
      "type": "function"
    },
    {
      "inputs": [],
      "name": "owner",
      "outputs": [
        {
          "internalType": "address",
          "name": "",
          "type": "address"
        }
      ],
      "stateMutability": "view",
      "type": "function"
    },
    {
      "inputs": [
        {
          "internalType": "address",
          "name": "token",
          "type": "address"
        },
        {
          "internalType": "uint256",
          "name": "liquidity",
          "type": "uint256"
        }
      ],
      "name": "removeLiquidity",
      "outputs": [],
      "stateMutability": "nonpayable",
      "type": "function"
    },
    {
      "inputs": [],
      "name": "renounceOwnership",
      "outputs": [],
      "stateMutability": "nonpayable",
      "type": "function"
    },
    {
      "inputs": [
        {
          "internalType": "address",
          "name": "tokenIn",
          "type": "address"
        },
        {
          "internalType": "uint256",
          "name": "amountIn",
          "type": "uint256"
        },
        {
          "internalType": "uint256",
          "name": "minAmountOut",
          "type": "uint256"
        }
      ],
      "name": "swapTokenForMatic",
      "outputs": [
        {
          "internalType": "uint256",
          "name": "amountOut",
          "type": "uint256"
        }
      ],
      "stateMutability": "nonpayable",
      "type": "function"
    },
    {
      "inputs": [
        {
          "internalType": "address",
          "name": "newOwner",
          "type": "address"
        }
      ],
      "name": "transferOwnership",
      "outputs": [],
      "stateMutability": "nonpayable",
      "type": "function"
    },
    {
      "inputs": [],
      "name": "uniswapRouter",
      "outputs": [
        {
          "internalType": "contract IUniswapV2Router02",
          "name": "",
          "type": "address"
        }
      ],
      "stateMutability": "view",
      "type": "function"
    },
    {
      "inputs": [
        {
          "internalType": "uint256",
          "name": "amount",
          "type": "uint256"
        }
      ],
      "name": "withdrawMatic",
      "outputs": [],
      "stateMutability": "nonpayable",
      "type": "function"
    },
    {
      "inputs": [
        {
          "internalType": "address",
          "name": "token",
          "type": "address"
        },
        {
          "internalType": "uint256",
          "name": "amount",
          "type": "uint256"
        }
      ],
      "name": "withdrawToken",
      "outputs": [],
      "stateMutability": "nonpayable",
      "type": "function"
    },
    {
      "stateMutability": "payable",
      "type": "receive"
    }
  ],
  "bytecode": "0x60a060405234801561001057600080fd5b506040516113e73803806113e783398101604081905261002f9161011e565b6001600055338061005b57604051631e4fbdf760e01b8152600060048201526024015b60405180910390fd5b610064816100cc565b506001600160a01b0381166100bb5760405162461bcd60e51b815260206004820152601660248201527f496e76616c696420726f757465722061646472657373000000000000000000006044820152606401610052565b6001600160a01b031660805261014e565b600180546001600160a01b038381166001600160a01b0319831681179093556040519116919082907f8be0079c531659141344cd1fd0a4f28419497f9722a3daafe3b4186f6b6457e090600090a35050565b60006020828403121561013057600080fd5b81516001600160a01b038116811461014757600080fd5b9392505050565b60805161124d61019a600039600081816101660152818161037a0152818161049c0152818161059b01528181610824015281816108a301528181610b050152610d93015261124d6000f3fe6080604052600436106100ab5760003560e01c80639e281a98116100645780639e281a98146101a6578063a201ccf6146101c6578063e8a379b2146101e6578063f2fde38b14610206578063f41ea24614610226578063f80e06d51461024257600080fd5b8063312a146b146100b75780634d95cad9146100ea578063566887001461012a578063715018a61461013f578063735de9f7146101545780638da5cb5b1461018857600080fd5b366100b257005b600080fd5b3480156100c357600080fd5b506100d76100d2366004610efc565b610262565b6040519081526020015b60405180910390f35b3480156100f657600080fd5b50610112730d500b1d8e8ef31e21c99d1db9a6444d3adf127081565b6040516001600160a01b0390911681526020016100e1565b61013d610138366004610f2f565b6106a7565b005b34801561014b57600080fd5b5061013d6109a1565b34801561016057600080fd5b506101127f000000000000000000000000000000000000000000000000000000000000000081565b34801561019457600080fd5b506001546001600160a01b0316610112565b3480156101b257600080fd5b5061013d6101c1366004610f2f565b6109b5565b3480156101d257600080fd5b5061013d6101e1366004610f2f565b610a7a565b3480156101f257600080fd5b5061013d610201366004610f59565b610c09565b34801561021257600080fd5b5061013d610221366004610f72565b610cac565b34801561023257600080fd5b506100d767016345785d8a000081565b34801561024e57600080fd5b506100d761025d366004610f2f565b610cea565b600061026c610e37565b6001600160a01b03841661029b5760405162461bcd60e51b815260040161029290610f8d565b60405180910390fd5b600083116102eb5760405162461bcd60e51b815260206004820152601d60248201527f416d6f756e74206d7573742062652067726561746572207468616e20300000006044820152606401610292565b6040516323b872dd60e01b8152336004820152306024820152604481018490526001600160a01b038516906323b872dd906064016020604051808303816000875af115801561033e573d6000803e3d6000fd5b505050506040513d601f19601f820116820180604052508101906103629190610fbc565b5060405163095ea7b360e01b81526001600160a01b037f0000000000000000000000000000000000000000000000000000000000000000811660048301526024820185905285169063095ea7b3906044016020604051808303816000875af11580156103d2573d6000803e3d6000fd5b505050506040513d601f19601f820116820180604052508101906103f69190610fbc565b50604080516002808252606082018352600092602083019080368337019050509050848160008151811061042c5761042c610ff4565b60200260200101906001600160a01b031690816001600160a01b031681525050730d500b1d8e8ef31e21c99d1db9a6444d3adf12708160018151811061047457610474610ff4565b6001600160a01b03928316602091820292909201015260405163d06ca61f60e01b81526000917f0000000000000000000000000000000000000000000000000000000000000000169063d06ca61f906104d3908890869060040161104e565b600060405180830381865afa1580156104f0573d6000803e3d6000fd5b505050506040513d6000823e601f3d908101601f19168201604052610518919081019061106f565b9050838160018151811061052e5761052e610ff4565b602002602001015110156105845760405162461bcd60e51b815260206004820152601a60248201527f496e73756666696369656e74206f757470757420616d6f756e740000000000006044820152606401610292565b6040516318cbafe560e01b81526001600160a01b037f000000000000000000000000000000000000000000000000000000000000000016906318cbafe5906105d8908890889087903390429060040161112d565b6000604051808303816000875af11580156105f7573d6000803e3d6000fd5b505050506040513d6000823e601f3d908101601f1916820160405261061f919081019061106f565b90508060018151811061063457610634610ff4565b60200260200101519250856001600160a01b0316336001600160a01b03167f30b60ee4dc75c0fb04420331b13e9ad7f8ff8fc51eac9c97d36fb20ccbe09d66878660405161068c929190918252602082015260400190565b60405180910390a350506106a06001600055565b9392505050565b6106af610e37565b6106b7610e61565b6001600160a01b0382166106dd5760405162461bcd60e51b815260040161029290610f8d565b600081116107395760405162461bcd60e51b815260206004820152602360248201527f546f6b656e20616d6f756e74206d75737420626520677265617465722074686160448201526206e20360ec1b6064820152608401610292565b600034116107955760405162461bcd60e51b815260206004820152602360248201527f4d4154494320616d6f756e74206d75737420626520677265617465722074686160448201526206e20360ec1b6064820152608401610292565b6040516323b872dd60e01b8152336004820152306024820152604481018290526001600160a01b038316906323b872dd906064016020604051808303816000875af11580156107e8573d6000803e3d6000fd5b505050506040513d601f19601f8201168201806040525081019061080c9190610fbc565b5060405163095ea7b360e01b81526001600160a01b037f0000000000000000000000000000000000000000000000000000000000000000811660048301526024820183905283169063095ea7b3906044016020604051808303816000875af115801561087c573d6000803e3d6000fd5b505050506040513d601f19601f820116820180604052508101906108a09190610fbc565b507f00000000000000000000000000000000000000000000000000000000000000006001600160a01b031663f305d7193484846000806108e86001546001600160a01b031690565b426040518863ffffffff1660e01b815260040161090a96959493929190611169565b60606040518083038185885af1158015610928573d6000803e3d6000fd5b50505050506040513d601f19601f8201168201806040525081019061094d91906111a4565b5050604080518381523460208201526001600160a01b03851692507fac1d76749e5447b7b16f5ab61447e1bd502f3bb4807af3b28e620d1700a6ee45910160405180910390a261099d6001600055565b5050565b6109a9610e61565b6109b36000610e8e565b565b6109bd610e61565b6001600160a01b0382166109e35760405162461bcd60e51b815260040161029290610f8d565b816001600160a01b031663a9059cbb610a046001546001600160a01b031690565b6040516001600160e01b031960e084901b1681526001600160a01b039091166004820152602481018490526044016020604051808303816000875af1158015610a51573d6000803e3d6000fd5b505050506040513d601f19601f82011682018060405250810190610a759190610fbc565b505050565b610a82610e37565b610a8a610e61565b6001600160a01b038216610ab05760405162461bcd60e51b815260040161029290610f8d565b60008111610b005760405162461bcd60e51b815260206004820181905260248201527f4c6971756964697479206d7573742062652067726561746572207468616e20306044820152606401610292565b6000807f00000000000000000000000000000000000000000000000000000000000000006001600160a01b03166302751cec8585600080610b496001546001600160a01b031690565b426040518763ffffffff1660e01b8152600401610b6b96959493929190611169565b60408051808303816000875af1158015610b89573d6000803e3d6000fd5b505050506040513d601f19601f82011682018060405250810190610bad91906111d2565b91509150836001600160a01b03167f96cd817c6329656790ef8fba7675405193677d39619571282f5e21f3a98cd0598383604051610bf5929190918252602082015260400190565b60405180910390a2505061099d6001600055565b610c11610e61565b610c2367016345785d8a0000826111f6565b471015610c725760405162461bcd60e51b815260206004820152601a60248201527f496e73756666696369656e74204d415449432062616c616e63650000000000006044820152606401610292565b6001546040516001600160a01b039091169082156108fc029083906000818181858888f1935050505015801561099d573d6000803e3d6000fd5b610cb4610e61565b6001600160a01b038116610cde57604051631e4fbdf760e01b815260006004820152602401610292565b610ce781610e8e565b50565b604080516002808252606082018352600092839291906020830190803683370190505090508381600081518110610d2357610d23610ff4565b60200260200101906001600160a01b031690816001600160a01b031681525050730d500b1d8e8ef31e21c99d1db9a6444d3adf127081600181518110610d6b57610d6b610ff4565b6001600160a01b03928316602091820292909201015260405163d06ca61f60e01b81526000917f0000000000000000000000000000000000000000000000000000000000000000169063d06ca61f90610dca908790869060040161104e565b600060405180830381865afa158015610de7573d6000803e3d6000fd5b505050506040513d6000823e601f3d908101601f19168201604052610e0f919081019061106f565b905080600181518110610e2457610e24610ff4565b6020026020010151925050505b92915050565b600260005403610e5a57604051633ee5aeb560e01b815260040160405180910390fd5b6002600055565b6001546001600160a01b031633146109b35760405163118cdaa760e01b8152336004820152602401610292565b600180546001600160a01b038381166001600160a01b0319831681179093556040519116919082907f8be0079c531659141344cd1fd0a4f28419497f9722a3daafe3b4186f6b6457e090600090a35050565b80356001600160a01b0381168114610ef757600080fd5b919050565b600080600060608486031215610f1157600080fd5b610f1a84610ee0565b95602085013595506040909401359392505050565b60008060408385031215610f4257600080fd5b610f4b83610ee0565b946020939093013593505050565b600060208284031215610f6b57600080fd5b5035919050565b600060208284031215610f8457600080fd5b6106a082610ee0565b602080825260159082015274496e76616c696420746f6b656e206164647265737360581b604082015260600190565b600060208284031215610fce57600080fd5b815180151581146106a057600080fd5b634e487b7160e01b600052604160045260246000fd5b634e487b7160e01b600052603260045260246000fd5b600081518084526020808501945080840160005b838110156110435781516001600160a01b03168752958201959082019060010161101e565b509495945050505050565b828152604060208201526000611067604083018461100a565b949350505050565b6000602080838503121561108257600080fd5b825167ffffffffffffffff8082111561109a57600080fd5b818501915085601f8301126110ae57600080fd5b8151818111156110c0576110c0610fde565b8060051b604051601f19603f830116810181811085821117156110e5576110e5610fde565b60405291825284820192508381018501918883111561110357600080fd5b938501935b8285101561112157845184529385019392850192611108565b98975050505050505050565b85815284602082015260a06040820152600061114c60a083018661100a565b6001600160a01b0394909416606083015250608001529392505050565b6001600160a01b039687168152602081019590955260408501939093526060840191909152909216608082015260a081019190915260c00190565b6000806000606084860312156111b957600080fd5b8351925060208401519150604084015190509250925092565b600080604083850312156111e557600080fd5b505080516020909101519092909150565b80820180821115610e3157634e487b7160e01b600052601160045260246000fdfea26469706673582212205757454c42cd7580bf806931c9c5bf08c38ada7e7922290721a327d54a6f011364736f6c63430008140033",
  "linkReferences": {},
  "deployedLinkReferences": {}
}