{
  "_format": "hh-sol-artifact-1",
  "contractName": "NFTMarketplace",
  "sourceName": "contracts/NFTMarketplace.sol",
  "abi": [
    {
      "inputs": [],
      "stateMutability": "nonpayable",
      "type": "constructor"
    },
    {
      "inputs": [
        {
          "internalType": "address",
          "name": "sender",
          "type": "address"
        },
        {
          "internalType": "uint256",
          "name": "tokenId",
          "type": "uint256"
        },
        {
          "internalType": "address",
          "name": "owner",
          "type": "address"
        }
      ],
      "name": "ERC721IncorrectOwner",
      "type": "error"
    },
    {
      "inputs": [
        {
          "internalType": "address",
          "name": "operator",
          "type": "address"
        },
        {
          "internalType": "uint256",
          "name": "tokenId",
          "type": "uint256"
        }
      ],
      "name": "ERC721InsufficientApproval",
      "type": "error"
    },
    {
      "inputs": [
        {
          "internalType": "address",
          "name": "approver",
          "type": "address"
        }
      ],
      "name": "ERC721InvalidApprover",
      "type": "error"
    },
    {
      "inputs": [
        {
          "internalType": "address",
          "name": "operator",
          "type": "address"
        }
      ],
      "name": "ERC721InvalidOperator",
      "type": "error"
    },
    {
      "inputs": [
        {
          "internalType": "address",
          "name": "owner",
          "type": "address"
        }
      ],
      "name": "ERC721InvalidOwner",
      "type": "error"
    },
    {
      "inputs": [
        {
          "internalType": "address",
          "name": "receiver",
          "type": "address"
        }
      ],
      "name": "ERC721InvalidReceiver",
      "type": "error"
    },
    {
      "inputs": [
        {
          "internalType": "address",
          "name": "sender",
          "type": "address"
        }
      ],
      "name": "ERC721InvalidSender",
      "type": "error"
    },
    {
      "inputs": [
        {
          "internalType": "uint256",
          "name": "tokenId",
          "type": "uint256"
        }
      ],
      "name": "ERC721NonexistentToken",
      "type": "error"
    },
    {
      "inputs": [],
      "name": "ReentrancyGuardReentrantCall",
      "type": "error"
    },
    {
      "anonymous": false,
      "inputs": [
        {
          "indexed": true,
          "internalType": "address",
          "name": "owner",
          "type": "address"
        },
        {
          "indexed": true,
          "internalType": "address",
          "name": "approved",
          "type": "address"
        },
        {
          "indexed": true,
          "internalType": "uint256",
          "name": "tokenId",
          "type": "uint256"
        }
      ],
      "name": "Approval",
      "type": "event"
    },
    {
      "anonymous": false,
      "inputs": [
        {
          "indexed": true,
          "internalType": "address",
          "name": "owner",
          "type": "address"
        },
        {
          "indexed": true,
          "internalType": "address",
          "name": "operator",
          "type": "address"
        },
        {
          "indexed": false,
          "internalType": "bool",
          "name": "approved",
          "type": "bool"
        }
      ],
      "name": "ApprovalForAll",
      "type": "event"
    },
    {
      "anonymous": false,
      "inputs": [
        {
          "indexed": false,
          "internalType": "uint256",
          "name": "_fromTokenId",
          "type": "uint256"
        },
        {
          "indexed": false,
          "internalType": "uint256",
          "name": "_toTokenId",
          "type": "uint256"
        }
      ],
      "name": "BatchMetadataUpdate",
      "type": "event"
    },
    {
      "anonymous": false,
      "inputs": [
        {
          "indexed": false,
          "internalType": "uint256",
          "name": "_tokenId",
          "type": "uint256"
        }
      ],
      "name": "MetadataUpdate",
      "type": "event"
    },
    {
      "anonymous": false,
      "inputs": [
        {
          "indexed": true,
          "internalType": "uint256",
          "name": "propertyId",
          "type": "uint256"
        },
        {
          "indexed": true,
          "internalType": "uint256",
          "name": "tokenId",
          "type": "uint256"
        },
        {
          "indexed": false,
          "internalType": "address",
          "name": "seller",
          "type": "address"
        },
        {
          "indexed": false,
          "internalType": "address",
          "name": "owner",
          "type": "address"
        },
        {
          "indexed": false,
          "internalType": "uint256",
          "name": "price",
          "type": "uint256"
        },
        {
          "indexed": false,
          "internalType": "bool",
          "name": "sold",
          "type": "bool"
        },
        {
          "indexed": false,
          "internalType": "string",
          "name": "propertyType",
          "type": "string"
        },
        {
          "indexed": false,
          "internalType": "string",
          "name": "propertyImage",
          "type": "string"
        },
        {
          "indexed": false,
          "internalType": "uint256",
          "name": "squareFootage",
          "type": "uint256"
        },
        {
          "indexed": false,
          "internalType": "string",
          "name": "location",
          "type": "string"
        }
      ],
      "name": "PropertyListed",
      "type": "event"
    },
    {
      "anonymous": false,
      "inputs": [
        {
          "indexed": true,
          "internalType": "address",
          "name": "from",
          "type": "address"
        },
        {
          "indexed": true,
          "internalType": "address",
          "name": "to",
          "type": "address"
        },
        {
          "indexed": true,
          "internalType": "uint256",
          "name": "tokenId",
          "type": "uint256"
        }
      ],
      "name": "Transfer",
      "type": "event"
    },
    {
      "inputs": [
        {
          "internalType": "address",
          "name": "to",
          "type": "address"
        },
        {
          "internalType": "uint256",
          "name": "tokenId",
          "type": "uint256"
        }
      ],
      "name": "approve",
      "outputs": [],
      "stateMutability": "nonpayable",
      "type": "function"
    },
    {
      "inputs": [
        {
          "internalType": "address",
          "name": "owner",
          "type": "address"
        }
      ],
      "name": "balanceOf",
      "outputs": [
        {
          "internalType": "uint256",
          "name": "",
          "type": "uint256"
        }
      ],
      "stateMutability": "view",
      "type": "function"
    },
    {
      "inputs": [
        {
          "internalType": "uint256",
          "name": "propertyId",
          "type": "uint256"
        }
      ],
      "name": "buyProperty",
      "outputs": [],
      "stateMutability": "payable",
      "type": "function"
    },
    {
      "inputs": [
        {
          "internalType": "string",
          "name": "tokenURI",
          "type": "string"
        }
      ],
      "name": "createToken",
      "outputs": [
        {
          "internalType": "uint256",
          "name": "",
          "type": "uint256"
        }
      ],
      "stateMutability": "nonpayable",
      "type": "function"
    },
    {
      "inputs": [],
      "name": "fetchAvailableProperties",
      "outputs": [
        {
          "components": [
            {
              "internalType": "uint256",
              "name": "propertyId",
              "type": "uint256"
            },
            {
              "internalType": "uint256",
              "name": "tokenId",
              "type": "uint256"
            },
            {
              "internalType": "address payable",
              "name": "seller",
              "type": "address"
            },
            {
              "internalType": "address payable",
              "name": "owner",
              "type": "address"
            },
            {
              "internalType": "uint256",
              "name": "price",
              "type": "uint256"
            },
            {
              "internalType": "bool",
              "name": "sold",
              "type": "bool"
            },
            {
              "internalType": "string",
              "name": "propertyType",
              "type": "string"
            },
            {
              "internalType": "string",
              "name": "propertyImage",
              "type": "string"
            },
            {
              "internalType": "uint256",
              "name": "squareFootage",
              "type": "uint256"
            },
            {
              "internalType": "string",
              "name": "location",
              "type": "string"
            }
          ],
          "internalType": "struct NFTMarketplace.Property[]",
          "name": "",
          "type": "tuple[]"
        }
      ],
      "stateMutability": "view",
      "type": "function"
    },
    {
      "inputs": [],
      "name": "fetchMyProperties",
      "outputs": [
        {
          "components": [
            {
              "internalType": "uint256",
              "name": "propertyId",
              "type": "uint256"
            },
            {
              "internalType": "uint256",
              "name": "tokenId",
              "type": "uint256"
            },
            {
              "internalType": "address payable",
              "name": "seller",
              "type": "address"
            },
            {
              "internalType": "address payable",
              "name": "owner",
              "type": "address"
            },
            {
              "internalType": "uint256",
              "name": "price",
              "type": "uint256"
            },
            {
              "internalType": "bool",
              "name": "sold",
              "type": "bool"
            },
            {
              "internalType": "string",
              "name": "propertyType",
              "type": "string"
            },
            {
              "internalType": "string",
              "name": "propertyImage",
              "type": "string"
            },
            {
              "internalType": "uint256",
              "name": "squareFootage",
              "type": "uint256"
            },
            {
              "internalType": "string",
              "name": "location",
              "type": "string"
            }
          ],
          "internalType": "struct NFTMarketplace.Property[]",
          "name": "",
          "type": "tuple[]"
        }
      ],
      "stateMutability": "view",
      "type": "function"
    },
    {
      "inputs": [
        {
          "internalType": "uint256",
          "name": "tokenId",
          "type": "uint256"
        }
      ],
      "name": "getApproved",
      "outputs": [
        {
          "internalType": "address",
          "name": "",
          "type": "address"
        }
      ],
      "stateMutability": "view",
      "type": "function"
    },
    {
      "inputs": [],
      "name": "getListingFee",
      "outputs": [
        {
          "internalType": "uint256",
          "name": "",
          "type": "uint256"
        }
      ],
      "stateMutability": "view",
      "type": "function"
    },
    {
      "inputs": [
        {
          "internalType": "address",
          "name": "owner",
          "type": "address"
        },
        {
          "internalType": "address",
          "name": "operator",
          "type": "address"
        }
      ],
      "name": "isApprovedForAll",
      "outputs": [
        {
          "internalType": "bool",
          "name": "",
          "type": "bool"
        }
      ],
      "stateMutability": "view",
      "type": "function"
    },
    {
      "inputs": [
        {
          "internalType": "uint256",
          "name": "tokenId",
          "type": "uint256"
        },
        {
          "internalType": "uint256",
          "name": "price",
          "type": "uint256"
        },
        {
          "internalType": "string",
          "name": "propertyType",
          "type": "string"
        },
        {
          "internalType": "string",
          "name": "propertyImage",
          "type": "string"
        },
        {
          "internalType": "uint256",
          "name": "squareFootage",
          "type": "uint256"
        },
        {
          "internalType": "string",
          "name": "location",
          "type": "string"
        }
      ],
      "name": "listProperty",
      "outputs": [],
      "stateMutability": "payable",
      "type": "function"
    },
    {
      "inputs": [],
      "name": "name",
      "outputs": [
        {
          "internalType": "string",
          "name": "",
          "type": "string"
        }
      ],
      "stateMutability": "view",
      "type": "function"
    },
    {
      "inputs": [
        {
          "internalType": "uint256",
          "name": "tokenId",
          "type": "uint256"
        }
      ],
      "name": "ownerOf",
      "outputs": [
        {
          "internalType": "address",
          "name": "",
          "type": "address"
        }
      ],
      "stateMutability": "view",
      "type": "function"
    },
    {
      "inputs": [
        {
          "internalType": "address",
          "name": "from",
          "type": "address"
        },
        {
          "internalType": "address",
          "name": "to",
          "type": "address"
        },
        {
          "internalType": "uint256",
          "name": "tokenId",
          "type": "uint256"
        }
      ],
      "name": "safeTransferFrom",
      "outputs": [],
      "stateMutability": "nonpayable",
      "type": "function"
    },
    {
      "inputs": [
        {
          "internalType": "address",
          "name": "from",
          "type": "address"
        },
        {
          "internalType": "address",
          "name": "to",
          "type": "address"
        },
        {
          "internalType": "uint256",
          "name": "tokenId",
          "type": "uint256"
        },
        {
          "internalType": "bytes",
          "name": "data",
          "type": "bytes"
        }
      ],
      "name": "safeTransferFrom",
      "outputs": [],
      "stateMutability": "nonpayable",
      "type": "function"
    },
    {
      "inputs": [
        {
          "internalType": "address",
          "name": "operator",
          "type": "address"
        },
        {
          "internalType": "bool",
          "name": "approved",
          "type": "bool"
        }
      ],
      "name": "setApprovalForAll",
      "outputs": [],
      "stateMutability": "nonpayable",
      "type": "function"
    },
    {
      "inputs": [
        {
          "internalType": "bytes4",
          "name": "interfaceId",
          "type": "bytes4"
        }
      ],
      "name": "supportsInterface",
      "outputs": [
        {
          "internalType": "bool",
          "name": "",
          "type": "bool"
        }
      ],
      "stateMutability": "view",
      "type": "function"
    },
    {
      "inputs": [],
      "name": "symbol",
      "outputs": [
        {
          "internalType": "string",
          "name": "",
          "type": "string"
        }
      ],
      "stateMutability": "view",
      "type": "function"
    },
    {
      "inputs": [
        {
          "internalType": "uint256",
          "name": "tokenId",
          "type": "uint256"
        }
      ],
      "name": "tokenURI",
      "outputs": [
        {
          "internalType": "string",
          "name": "",
          "type": "string"
        }
      ],
      "stateMutability": "view",
      "type": "function"
    },
    {
      "inputs": [
        {
          "internalType": "address",
          "name": "from",
          "type": "address"
        },
        {
          "internalType": "address",
          "name": "to",
          "type": "address"
        },
        {
          "internalType": "uint256",
          "name": "tokenId",
          "type": "uint256"
        }
      ],
      "name": "transferFrom",
      "outputs": [],
      "stateMutability": "nonpayable",
      "type": "function"
    }
  ],
  "bytecode": "0x60806040526658d15e176280006009553480156200001c57600080fd5b506040518060400160405280600f81526020016e1499585b08115cdd185d1948139195608a1b81525060405180604001604052806005815260200164149153919560da1b815250816000908162000074919062000148565b50600162000083828262000148565b5050600160075550600880546001600160a01b0319163317905562000214565b634e487b7160e01b600052604160045260246000fd5b600181811c90821680620000ce57607f821691505b602082108103620000ef57634e487b7160e01b600052602260045260246000fd5b50919050565b601f8211156200014357600081815260208120601f850160051c810160208610156200011e5750805b601f850160051c820191505b818110156200013f578281556001016200012a565b5050505b505050565b81516001600160401b03811115620001645762000164620000a3565b6200017c81620001758454620000b9565b84620000f5565b602080601f831160018114620001b457600084156200019b5750858301515b600019600386901b1c1916600185901b1785556200013f565b600085815260208120601f198616915b82811015620001e557888601518255948401946001909101908401620001c4565b5085821015620002045787850151600019600388901b60f8161c191681555b5050505050600190811b01905550565b6121f980620002246000396000f3fe6080604052600436106101145760003560e01c80636fa830a6116100a0578063b88d4fde11610064578063b88d4fde146102f5578063b8fe6abe14610315578063c87b56dd1461032a578063e409f7e81461034a578063e985e9c51461035f57600080fd5b80636fa830a61461027a57806370a082311461028d5780638fd91bd7146102ad57806395d89b41146102c0578063a22cb465146102d557600080fd5b806323b872dd116100e757806323b872dd146101ca5780632b20d9d9146101ea57806342842e0e1461020c57806345576f941461022c5780636352211e1461025a57600080fd5b806301ffc9a71461011957806306fdde031461014e578063081812fc14610170578063095ea7b3146101a8575b600080fd5b34801561012557600080fd5b50610139610134366004611a82565b61037f565b60405190151581526020015b60405180910390f35b34801561015a57600080fd5b506101636103aa565b6040516101459190611aef565b34801561017c57600080fd5b5061019061018b366004611b02565b61043c565b6040516001600160a01b039091168152602001610145565b3480156101b457600080fd5b506101c86101c3366004611b37565b610465565b005b3480156101d657600080fd5b506101c86101e5366004611b61565b610474565b3480156101f657600080fd5b506101ff610504565b6040516101459190611b9d565b34801561021857600080fd5b506101c8610227366004611b61565b610813565b34801561023857600080fd5b5061024c610247366004611d4a565b610833565b604051908152602001610145565b34801561026657600080fd5b50610190610275366004611b02565b610860565b6101c8610288366004611b02565b61086b565b34801561029957600080fd5b5061024c6102a8366004611d7f565b6109e4565b6101c86102bb366004611d9a565b610a2c565b3480156102cc57600080fd5b50610163610cb9565b3480156102e157600080fd5b506101c86102f0366004611e3e565b610cc8565b34801561030157600080fd5b506101c8610310366004611e7a565b610cd3565b34801561032157600080fd5b5060095461024c565b34801561033657600080fd5b50610163610345366004611b02565b610cea565b34801561035657600080fd5b506101ff610dfb565b34801561036b57600080fd5b5061013961037a366004611ef6565b611144565b60006001600160e01b03198216632483248360e11b14806103a457506103a482611172565b92915050565b6060600080546103b990611f29565b80601f01602080910402602001604051908101604052809291908181526020018280546103e590611f29565b80156104325780601f1061040757610100808354040283529160200191610432565b820191906000526020600020905b81548152906001019060200180831161041557829003601f168201915b5050505050905090565b6000610447826111c2565b506000828152600460205260409020546001600160a01b03166103a4565b6104708282336111fb565b5050565b6001600160a01b0382166104a357604051633250574960e11b8152600060048201526024015b60405180910390fd5b60006104b0838333611208565b9050836001600160a01b0316816001600160a01b0316146104fe576040516364283d7b60e01b81526001600160a01b038086166004830152602482018490528216604482015260640161049a565b50505050565b60606000600c54600b546105189190611f79565b90506000808267ffffffffffffffff81111561053657610536611c9e565b60405190808252806020026020018201604052801561056f57816020015b61055c611a05565b8152602001906001900390816105545790505b50905060015b600b54811161080b576000818152600d60205260409020600301546001600160a01b03166107f9576000818152600d60209081526040918290208251610140810184528154815260018201549281019290925260028101546001600160a01b03908116938301939093526003810154909216606082015260048201546080820152600582015460ff16151560a082015260068201805491929160c08401919061061d90611f29565b80601f016020809104026020016040519081016040528092919081815260200182805461064990611f29565b80156106965780601f1061066b57610100808354040283529160200191610696565b820191906000526020600020905b81548152906001019060200180831161067957829003601f168201915b505050505081526020016007820180546106af90611f29565b80601f01602080910402602001604051908101604052809291908181526020018280546106db90611f29565b80156107285780601f106106fd57610100808354040283529160200191610728565b820191906000526020600020905b81548152906001019060200180831161070b57829003601f168201915b505050505081526020016008820154815260200160098201805461074b90611f29565b80601f016020809104026020016040519081016040528092919081815260200182805461077790611f29565b80156107c45780601f10610799576101008083540402835291602001916107c4565b820191906000526020600020905b8154815290600101906020018083116107a757829003601f168201915b5050505050815250508284815181106107df576107df611f8c565b602002602001018190525082806107f590611fa2565b9350505b8061080381611fa2565b915050610575565b509392505050565b61082e83838360405180602001604052806000815250610cd3565b505050565b600a80546000918261084483611fa2565b9091555050600a546108563382611301565b6103a48184611366565b60006103a4826111c2565b6108736113b6565b6000818152600d6020526040902060048101546001909101543482146109015760405162461bcd60e51b815260206004820152603760248201527f506c65617365207375626d6974207468652061736b696e67207072696365207460448201527f6f20636f6d706c65746520746865207075726368617365000000000000000000606482015260840161049a565b6000838152600d60205260408082206002015490516001600160a01b03909116913480156108fc02929091818181858888f19350505050158015610949573d6000803e3d6000fd5b506109553033836113e0565b6000838152600d602052604081206003810180546001600160a01b03191633179055600501805460ff19166001179055600c80549161099383611fa2565b90915550506008546009546040516001600160a01b039092169181156108fc0291906000818181858888f193505050501580156109d4573d6000803e3d6000fd5b5050506109e16001600755565b50565b60006001600160a01b038216610a10576040516322718ad960e21b81526000600482015260240161049a565b506001600160a01b031660009081526003602052604090205490565b610a346113b6565b60008511610a845760405162461bcd60e51b815260206004820152601c60248201527f5072696365206d757374206265206174206c6561737420312077656900000000604482015260640161049a565b6009543414610ad55760405162461bcd60e51b815260206004820152601860248201527f4d7573742070617920746865206c697374696e67206665650000000000000000604482015260640161049a565b33610adf87610860565b6001600160a01b031614610b355760405162461bcd60e51b815260206004820181905260248201527f596f752063616e206f6e6c79206c69737420746f6b656e7320796f75206f776e604482015260640161049a565b600b8054906000610b4583611fa2565b9091555050600b54604080516101408101825282815260208082018a815233838501908152600060608501818152608086018d815260a0870183815260c088018e815260e089018e905261010089018d905261012089018c90528a8552600d90975297909220865181559351600185015591516002840180546001600160a01b03199081166001600160a01b03938416179091559251600385018054909416911617909155516004820155925160058401805460ff1916911515919091179055519091906006820190610c189082612001565b5060e08201516007820190610c2d9082612001565b5061010082015160088201556101208201516009820190610c4e9082612001565b50905050610c5d3330896113e0565b86817f3c37c6ed1bdc3e78c945ef524ca6a90c0ce898696542bda923f48414d4a0e65f3360008a60008b8b8b8b604051610c9e9897969594939291906120c1565b60405180910390a350610cb16001600755565b505050505050565b6060600180546103b990611f29565b610470338383611490565b610cde848484610474565b6104fe8484848461152f565b6060610cf5826111c2565b5060008281526006602052604081208054610d0f90611f29565b80601f0160208091040260200160405190810160405280929190818152602001828054610d3b90611f29565b8015610d885780601f10610d5d57610100808354040283529160200191610d88565b820191906000526020600020905b815481529060010190602001808311610d6b57829003601f168201915b505050505090506000610da660408051602081019091526000815290565b90508051600003610db8575092915050565b815115610dea578082604051602001610dd292919061213a565b60405160208183030381529060405292505050919050565b610df384611658565b949350505050565b606060008060015b600b548111610e4f576000818152600d6020526040902060030154336001600160a01b0390911603610e3d5782610e3981611fa2565b9350505b80610e4781611fa2565b915050610e03565b5060008267ffffffffffffffff811115610e6b57610e6b611c9e565b604051908082528060200260200182016040528015610ea457816020015b610e91611a05565b815260200190600190039081610e895790505b50905060015b600b54811161080b576000818152600d6020526040902060030154336001600160a01b0390911603611132576000818152600d60209081526040918290208251610140810184528154815260018201549281019290925260028101546001600160a01b03908116938301939093526003810154909216606082015260048201546080820152600582015460ff16151560a082015260068201805491929160c084019190610f5690611f29565b80601f0160208091040260200160405190810160405280929190818152602001828054610f8290611f29565b8015610fcf5780601f10610fa457610100808354040283529160200191610fcf565b820191906000526020600020905b815481529060010190602001808311610fb257829003601f168201915b50505050508152602001600782018054610fe890611f29565b80601f016020809104026020016040519081016040528092919081815260200182805461101490611f29565b80156110615780601f1061103657610100808354040283529160200191611061565b820191906000526020600020905b81548152906001019060200180831161104457829003601f168201915b505050505081526020016008820154815260200160098201805461108490611f29565b80601f01602080910402602001604051908101604052809291908181526020018280546110b090611f29565b80156110fd5780601f106110d2576101008083540402835291602001916110fd565b820191906000526020600020905b8154815290600101906020018083116110e057829003601f168201915b50505050508152505082848151811061111857611118611f8c565b6020026020010181905250828061112e90611fa2565b9350505b8061113c81611fa2565b915050610eaa565b6001600160a01b03918216600090815260056020908152604080832093909416825291909152205460ff1690565b60006001600160e01b031982166380ac58cd60e01b14806111a357506001600160e01b03198216635b5e139f60e01b145b806103a457506301ffc9a760e01b6001600160e01b03198316146103a4565b6000818152600260205260408120546001600160a01b0316806103a457604051637e27328960e01b81526004810184905260240161049a565b61082e83838360016116cd565b6000828152600260205260408120546001600160a01b0390811690831615611235576112358184866117d3565b6001600160a01b03811615611273576112526000856000806116cd565b6001600160a01b038116600090815260036020526040902080546000190190555b6001600160a01b038516156112a2576001600160a01b0385166000908152600360205260409020805460010190555b60008481526002602052604080822080546001600160a01b0319166001600160a01b0389811691821790925591518793918516917fddf252ad1be2c89b69c2b068fc378daa952ba7f163c4a11628f55a4df523b3ef91a4949350505050565b6001600160a01b03821661132b57604051633250574960e11b81526000600482015260240161049a565b600061133983836000611208565b90506001600160a01b0381161561082e576040516339e3563760e11b81526000600482015260240161049a565b600082815260066020526040902061137e8282612001565b506040518281527ff8e1a15aba9398e019f0b49df1a4fde98ee17ae345cb5f6b5e2c27f5033e8ce79060200160405180910390a15050565b6002600754036113d957604051633ee5aeb560e01b815260040160405180910390fd5b6002600755565b6001600160a01b03821661140a57604051633250574960e11b81526000600482015260240161049a565b600061141883836000611208565b90506001600160a01b03811661144457604051637e27328960e01b81526004810183905260240161049a565b836001600160a01b0316816001600160a01b0316146104fe576040516364283d7b60e01b81526001600160a01b038086166004830152602482018490528216604482015260640161049a565b6001600160a01b0382166114c257604051630b61174360e31b81526001600160a01b038316600482015260240161049a565b6001600160a01b03838116600081815260056020908152604080832094871680845294825291829020805460ff191686151590811790915591519182527f17307eab39ab6107e8899845ad3d59bd9653f200f220920489ca2b5937696c31910160405180910390a3505050565b6001600160a01b0383163b156104fe57604051630a85bd0160e11b81526001600160a01b0384169063150b7a0290611571903390889087908790600401612169565b6020604051808303816000875af19250505080156115ac575060408051601f3d908101601f191682019092526115a9918101906121a6565b60015b611615573d8080156115da576040519150601f19603f3d011682016040523d82523d6000602084013e6115df565b606091505b50805160000361160d57604051633250574960e11b81526001600160a01b038516600482015260240161049a565b805181602001fd5b6001600160e01b03198116630a85bd0160e11b1461165157604051633250574960e11b81526001600160a01b038516600482015260240161049a565b5050505050565b6060611663826111c2565b50600061167b60408051602081019091526000815290565b9050600081511161169b57604051806020016040528060008152506116c6565b806116a584611837565b6040516020016116b692919061213a565b6040516020818303038152906040525b9392505050565b80806116e157506001600160a01b03821615155b156117a35760006116f1846111c2565b90506001600160a01b0383161580159061171d5750826001600160a01b0316816001600160a01b031614155b8015611730575061172e8184611144565b155b156117595760405163a9fbf51f60e01b81526001600160a01b038416600482015260240161049a565b81156117a15783856001600160a01b0316826001600160a01b03167f8c5be1e5ebec7d5bd14f71427d1e84f3dd0314c0f7b2291e5b200ac8c7c3b92560405160405180910390a45b505b5050600090815260046020526040902080546001600160a01b0319166001600160a01b0392909216919091179055565b6117de8383836118ca565b61082e576001600160a01b03831661180c57604051637e27328960e01b81526004810182905260240161049a565b60405163177e802f60e01b81526001600160a01b03831660048201526024810182905260440161049a565b606060006118448361192d565b600101905060008167ffffffffffffffff81111561186457611864611c9e565b6040519080825280601f01601f19166020018201604052801561188e576020820181803683370190505b5090508181016020015b600019016f181899199a1a9b1b9c1cb0b131b232b360811b600a86061a8153600a850494508461189857509392505050565b60006001600160a01b03831615801590610df35750826001600160a01b0316846001600160a01b0316148061190457506119048484611144565b80610df35750506000908152600460205260409020546001600160a01b03908116911614919050565b60008072184f03e93ff9f4daa797ed6e38ed64bf6a1f0160401b831061196c5772184f03e93ff9f4daa797ed6e38ed64bf6a1f0160401b830492506040015b6d04ee2d6d415b85acef81000000008310611998576d04ee2d6d415b85acef8100000000830492506020015b662386f26fc1000083106119b657662386f26fc10000830492506010015b6305f5e10083106119ce576305f5e100830492506008015b61271083106119e257612710830492506004015b606483106119f4576064830492506002015b600a83106103a45760010192915050565b604051806101400160405280600081526020016000815260200160006001600160a01b0316815260200160006001600160a01b0316815260200160008152602001600015158152602001606081526020016060815260200160008152602001606081525090565b6001600160e01b0319811681146109e157600080fd5b600060208284031215611a9457600080fd5b81356116c681611a6c565b60005b83811015611aba578181015183820152602001611aa2565b50506000910152565b60008151808452611adb816020860160208601611a9f565b601f01601f19169290920160200192915050565b6020815260006116c66020830184611ac3565b600060208284031215611b1457600080fd5b5035919050565b80356001600160a01b0381168114611b3257600080fd5b919050565b60008060408385031215611b4a57600080fd5b611b5383611b1b565b946020939093013593505050565b600080600060608486031215611b7657600080fd5b611b7f84611b1b565b9250611b8d60208501611b1b565b9150604084013590509250925092565b60006020808301818452808551808352604092508286019150828160051b87010184880160005b83811015611c9057603f198984030185528151805184528781015188850152868101516001600160a01b0390811688860152606080830151909116908501526080808201519085015260a08082015115159085015260c0808201516101408287018190529190611c3683880182611ac3565b9250505060e08083015186830382880152611c518382611ac3565b925050506101008083015181870152506101208083015192508582038187015250611c7c8183611ac3565b968901969450505090860190600101611bc4565b509098975050505050505050565b634e487b7160e01b600052604160045260246000fd5b600067ffffffffffffffff80841115611ccf57611ccf611c9e565b604051601f8501601f19908116603f01168101908282118183101715611cf757611cf7611c9e565b81604052809350858152868686011115611d1057600080fd5b858560208301376000602087830101525050509392505050565b600082601f830112611d3b57600080fd5b6116c683833560208501611cb4565b600060208284031215611d5c57600080fd5b813567ffffffffffffffff811115611d7357600080fd5b610df384828501611d2a565b600060208284031215611d9157600080fd5b6116c682611b1b565b60008060008060008060c08789031215611db357600080fd5b8635955060208701359450604087013567ffffffffffffffff80821115611dd957600080fd5b611de58a838b01611d2a565b95506060890135915080821115611dfb57600080fd5b611e078a838b01611d2a565b94506080890135935060a0890135915080821115611e2457600080fd5b50611e3189828a01611d2a565b9150509295509295509295565b60008060408385031215611e5157600080fd5b611e5a83611b1b565b915060208301358015158114611e6f57600080fd5b809150509250929050565b60008060008060808587031215611e9057600080fd5b611e9985611b1b565b9350611ea760208601611b1b565b925060408501359150606085013567ffffffffffffffff811115611eca57600080fd5b8501601f81018713611edb57600080fd5b611eea87823560208401611cb4565b91505092959194509250565b60008060408385031215611f0957600080fd5b611f1283611b1b565b9150611f2060208401611b1b565b90509250929050565b600181811c90821680611f3d57607f821691505b602082108103611f5d57634e487b7160e01b600052602260045260246000fd5b50919050565b634e487b7160e01b600052601160045260246000fd5b818103818111156103a4576103a4611f63565b634e487b7160e01b600052603260045260246000fd5b600060018201611fb457611fb4611f63565b5060010190565b601f82111561082e57600081815260208120601f850160051c81016020861015611fe25750805b601f850160051c820191505b81811015610cb157828155600101611fee565b815167ffffffffffffffff81111561201b5761201b611c9e565b61202f816120298454611f29565b84611fbb565b602080601f831160018114612064576000841561204c5750858301515b600019600386901b1c1916600185901b178555610cb1565b600085815260208120601f198616915b8281101561209357888601518255948401946001909101908401612074565b50858210156120b15787850151600019600388901b60f8161c191681555b5050505050600190811b01905550565b6001600160a01b03898116825288166020820152604081018790528515156060820152610100608082018190526000906120fd83820188611ac3565b905082810360a08401526121118187611ac3565b90508460c084015282810360e084015261212b8185611ac3565b9b9a5050505050505050505050565b6000835161214c818460208801611a9f565b835190830190612160818360208801611a9f565b01949350505050565b6001600160a01b038581168252841660208201526040810183905260806060820181905260009061219c90830184611ac3565b9695505050505050565b6000602082840312156121b857600080fd5b81516116c681611a6c56fea2646970667358221220c1d71d8627563a5ea1c811657d0a454693dc26325e5ee5f9f23434e26bf05fec64736f6c63430008140033",
  "linkReferences": {},
  "deployedLinkReferences": {}
}